{"contracts/StakingWithEmissions.sol":{"StakingWithEmissions":{"abi":[{"inputs":[{"internalType":"contract ISansuCoin","name":"_token","type":"address"}],"stateMutability":"nonpayable","type":"constructor"},{"inputs":[],"name":"REWARD_PER_SEC_PER_ETH","outputs":[{"internalType":"uint256","name":"","type":"uint256"}],"stateMutability":"view","type":"function"},{"inputs":[],"name":"claimEmissions","outputs":[],"stateMutability":"nonpayable","type":"function"},{"inputs":[{"internalType":"address","name":"_user","type":"address"}],"name":"getRewards","outputs":[{"internalType":"uint256","name":"","type":"uint256"}],"stateMutability":"view","type":"function"},{"inputs":[],"name":"sansuCoin","outputs":[{"internalType":"contract ISansuCoin","name":"","type":"address"}],"stateMutability":"view","type":"function"},{"inputs":[{"internalType":"uint256","name":"_amount","type":"uint256"}],"name":"stake","outputs":[],"stateMutability":"payable","type":"function"},{"inputs":[],"name":"totalStaked","outputs":[{"internalType":"uint256","name":"","type":"uint256"}],"stateMutability":"view","type":"function"},{"inputs":[],"name":"totalStakedBalance","outputs":[{"internalType":"uint256","name":"","type":"uint256"}],"stateMutability":"view","type":"function"},{"inputs":[{"internalType":"uint256","name":"_amount","type":"uint256"}],"name":"unstake","outputs":[],"stateMutability":"payable","type":"function"},{"inputs":[{"internalType":"address","name":"_newToken","type":"address"}],"name":"updateToken","outputs":[],"stateMutability":"nonpayable","type":"function"},{"inputs":[{"internalType":"address","name":"","type":"address"}],"name":"userInfo","outputs":[{"internalType":"uint256","name":"stakedAmount","type":"uint256"},{"internalType":"uint256","name":"rewardDebt","type":"uint256"},{"internalType":"uint256","name":"lastUpdate","type":"uint256"}],"stateMutability":"view","type":"function"}],"evm":{"bytecode":{"linkReferences":{},"object":"608060405234801561001057600080fd5b5060405162000e3c38038062000e3c833981810160405281019061003491906100f0565b80600160006101000a81548173ffffffffffffffffffffffffffffffffffffffff021916908373ffffffffffffffffffffffffffffffffffffffff1602179055505061011d565b600080fd5b600073ffffffffffffffffffffffffffffffffffffffff82169050919050565b60006100ab82610080565b9050919050565b60006100bd826100a0565b9050919050565b6100cd816100b2565b81146100d857600080fd5b50565b6000815190506100ea816100c4565b92915050565b6000602082840312156101065761010561007b565b5b6000610114848285016100db565b91505092915050565b610d0f806200012d6000396000f3fe6080604052600436106100915760003560e01c806379ee54f71161005957806379ee54f7146101725780637ad3def2146101af578063817b1cd2146101d8578063a591a6f414610203578063a694fc3a1461021a57610091565b80630620eedc146100965780631959a002146100c15780632432bf30146101005780632e17de781461012b5780635c8c129414610147575b600080fd5b3480156100a257600080fd5b506100ab610236565b6040516100b891906107f2565b60405180910390f35b3480156100cd57600080fd5b506100e860048036038101906100e39190610870565b61023c565b6040516100f79392919061089d565b60405180910390f35b34801561010c57600080fd5b50610115610266565b6040516101229190610933565b60405180910390f35b6101456004803603810190610140919061097a565b61028c565b005b34801561015357600080fd5b5061015c6103e1565b60405161016991906107f2565b60405180910390f35b34801561017e57600080fd5b5061019960048036038101906101949190610870565b6103ed565b6040516101a691906107f2565b60405180910390f35b3480156101bb57600080fd5b506101d660048036038101906101d19190610870565b6104be565b005b3480156101e457600080fd5b506101ed610502565b6040516101fa91906107f2565b60405180910390f35b34801561020f57600080fd5b5061021861050c565b005b610234600480360381019061022f919061097a565b6105f8565b005b60025481565b60036020528060005260406000206000915090508060000154908060010154908060020154905083565b600160009054906101000a900473ffffffffffffffffffffffffffffffffffffffff1681565b600081116102cf576040517f08c379a00000000000000000000000000000000000000000000000000000000081526004016102c690610a04565b60405180910390fd5b6000600360003373ffffffffffffffffffffffffffffffffffffffff1673ffffffffffffffffffffffffffffffffffffffff16815260200190815260200160002090508181600001541015610359576040517f08c379a000000000000000000000000000000000000000000000000000000000815260040161035090610a70565b60405180910390fd5b610362336106fb565b818160000160008282546103769190610abf565b92505081905550816002600082825461038f9190610abf565b925050819055503373ffffffffffffffffffffffffffffffffffffffff166108fc839081150290604051600060405180830381858888f193505050501580156103dc573d6000803e3d6000fd5b505050565b670de0b6b3a764000081565b600080600360008473ffffffffffffffffffffffffffffffffffffffff1673ffffffffffffffffffffffffffffffffffffffff168152602001908152602001600020905060008160020154036104475760009150506104b9565b60008160020154426104599190610abf565b905060008103610471578160010154925050506104b9565b6000670de0b6b3a76400008083856000015461048d9190610af3565b6104979190610af3565b6104a19190610b64565b90508260010154816104b39190610b95565b93505050505b919050565b80600160006101000a81548173ffffffffffffffffffffffffffffffffffffffff021916908373ffffffffffffffffffffffffffffffffffffffff16021790555050565b6000600254905090565b610515336106fb565b6000600360003373ffffffffffffffffffffffffffffffffffffffff1673ffffffffffffffffffffffffffffffffffffffff1681526020019081526020016000209050600160009054906101000a900473ffffffffffffffffffffffffffffffffffffffff1673ffffffffffffffffffffffffffffffffffffffff166340c10f193383600101546040518363ffffffff1660e01b81526004016105b9929190610bd8565b600060405180830381600087803b1580156105d357600080fd5b505af11580156105e7573d6000803e3d6000fd5b505050506000816001018190555050565b6000811161063b576040517f08c379a000000000000000000000000000000000000000000000000000000000815260040161063290610c4d565b60405180910390fd5b80341461067d576040517f08c379a000000000000000000000000000000000000000000000000000000000815260040161067490610cb9565b60405180910390fd5b610686336106fb565b80600360003373ffffffffffffffffffffffffffffffffffffffff1673ffffffffffffffffffffffffffffffffffffffff16815260200190815260200160002060000160008282546106d89190610b95565b9250508190555080600260008282546106f19190610b95565b9250508190555050565b6000600360008373ffffffffffffffffffffffffffffffffffffffff1673ffffffffffffffffffffffffffffffffffffffff1681526020019081526020016000209050600081600201540361075957428160020181905550506107d6565b600081600201544261076b9190610abf565b90506000810361077c5750506107d6565b6000670de0b6b3a7640000808385600001546107989190610af3565b6107a29190610af3565b6107ac9190610b64565b9050808360010160008282546107c29190610b95565b925050819055504283600201819055505050505b50565b6000819050919050565b6107ec816107d9565b82525050565b600060208201905061080760008301846107e3565b92915050565b600080fd5b600073ffffffffffffffffffffffffffffffffffffffff82169050919050565b600061083d82610812565b9050919050565b61084d81610832565b811461085857600080fd5b50565b60008135905061086a81610844565b92915050565b6000602082840312156108865761088561080d565b5b60006108948482850161085b565b91505092915050565b60006060820190506108b260008301866107e3565b6108bf60208301856107e3565b6108cc60408301846107e3565b949350505050565b6000819050919050565b60006108f96108f46108ef84610812565b6108d4565b610812565b9050919050565b600061090b826108de565b9050919050565b600061091d82610900565b9050919050565b61092d81610912565b82525050565b60006020820190506109486000830184610924565b92915050565b610957816107d9565b811461096257600080fd5b50565b6000813590506109748161094e565b92915050565b6000602082840312156109905761098f61080d565b5b600061099e84828501610965565b91505092915050565b600082825260208201905092915050565b7f43616e6e6f7420756e7374616b65203000000000000000000000000000000000600082015250565b60006109ee6010836109a7565b91506109f9826109b8565b602082019050919050565b60006020820190508181036000830152610a1d816109e1565b9050919050565b7f4e6f7420656e6f756768207374616b6564000000000000000000000000000000600082015250565b6000610a5a6011836109a7565b9150610a6582610a24565b602082019050919050565b60006020820190508181036000830152610a8981610a4d565b9050919050565b7f4e487b7100000000000000000000000000000000000000000000000000000000600052601160045260246000fd5b6000610aca826107d9565b9150610ad5836107d9565b9250828203905081811115610aed57610aec610a90565b5b92915050565b6000610afe826107d9565b9150610b09836107d9565b9250828202610b17816107d9565b91508282048414831517610b2e57610b2d610a90565b5b5092915050565b7f4e487b7100000000000000000000000000000000000000000000000000000000600052601260045260246000fd5b6000610b6f826107d9565b9150610b7a836107d9565b925082610b8a57610b89610b35565b5b828204905092915050565b6000610ba0826107d9565b9150610bab836107d9565b9250828201905080821115610bc357610bc2610a90565b5b92915050565b610bd281610832565b82525050565b6000604082019050610bed6000830185610bc9565b610bfa60208301846107e3565b9392505050565b7f43616e6e6f74207374616b652030000000000000000000000000000000000000600082015250565b6000610c37600e836109a7565b9150610c4282610c01565b602082019050919050565b60006020820190508181036000830152610c6681610c2a565b9050919050565b7f45544820616d6f756e74206d69736d6174636800000000000000000000000000600082015250565b6000610ca36013836109a7565b9150610cae82610c6d565b602082019050919050565b60006020820190508181036000830152610cd281610c96565b905091905056fea264697066735822122097bbc53d46dd0887f4ad383ade7d213040664a396b9bc0e0334d013d8cde67be64736f6c63430008140033","opcodes":"PUSH1 0x80 PUSH1 0x40 MSTORE CALLVALUE DUP1 ISZERO PUSH2 0x10 JUMPI PUSH1 0x0 DUP1 REVERT JUMPDEST POP PUSH1 0x40 MLOAD PUSH3 0xE3C CODESIZE SUB DUP1 PUSH3 0xE3C DUP4 CODECOPY DUP2 DUP2 ADD PUSH1 0x40 MSTORE DUP2 ADD SWAP1 PUSH2 0x34 SWAP2 SWAP1 PUSH2 0xF0 JUMP JUMPDEST DUP1 PUSH1 0x1 PUSH1 0x0 PUSH2 0x100 EXP DUP2 SLOAD DUP2 PUSH20 0xFFFFFFFFFFFFFFFFFFFFFFFFFFFFFFFFFFFFFFFF MUL NOT AND SWAP1 DUP4 PUSH20 0xFFFFFFFFFFFFFFFFFFFFFFFFFFFFFFFFFFFFFFFF AND MUL OR SWAP1 SSTORE POP POP PUSH2 0x11D JUMP JUMPDEST PUSH1 0x0 DUP1 REVERT JUMPDEST PUSH1 0x0 PUSH20 0xFFFFFFFFFFFFFFFFFFFFFFFFFFFFFFFFFFFFFFFF DUP3 AND SWAP1 POP SWAP2 SWAP1 POP JUMP JUMPDEST PUSH1 0x0 PUSH2 0xAB DUP3 PUSH2 0x80 JUMP JUMPDEST SWAP1 POP SWAP2 SWAP1 POP JUMP JUMPDEST PUSH1 0x0 PUSH2 0xBD DUP3 PUSH2 0xA0 JUMP JUMPDEST SWAP1 POP SWAP2 SWAP1 POP JUMP JUMPDEST PUSH2 0xCD DUP2 PUSH2 0xB2 JUMP JUMPDEST DUP2 EQ PUSH2 0xD8 JUMPI PUSH1 0x0 DUP1 REVERT JUMPDEST POP JUMP JUMPDEST PUSH1 0x0 DUP2 MLOAD SWAP1 POP PUSH2 0xEA DUP2 PUSH2 0xC4 JUMP JUMPDEST SWAP3 SWAP2 POP POP JUMP JUMPDEST PUSH1 0x0 PUSH1 0x20 DUP3 DUP5 SUB SLT ISZERO PUSH2 0x106 JUMPI PUSH2 0x105 PUSH2 0x7B JUMP JUMPDEST JUMPDEST PUSH1 0x0 PUSH2 0x114 DUP5 DUP3 DUP6 ADD PUSH2 0xDB JUMP JUMPDEST SWAP2 POP POP SWAP3 SWAP2 POP POP JUMP JUMPDEST PUSH2 0xD0F DUP1 PUSH3 0x12D PUSH1 0x0 CODECOPY PUSH1 0x0 RETURN INVALID PUSH1 0x80 PUSH1 0x40 MSTORE PUSH1 0x4 CALLDATASIZE LT PUSH2 0x91 JUMPI PUSH1 0x0 CALLDATALOAD PUSH1 0xE0 SHR DUP1 PUSH4 0x79EE54F7 GT PUSH2 0x59 JUMPI DUP1 PUSH4 0x79EE54F7 EQ PUSH2 0x172 JUMPI DUP1 PUSH4 0x7AD3DEF2 EQ PUSH2 0x1AF JUMPI DUP1 PUSH4 0x817B1CD2 EQ PUSH2 0x1D8 JUMPI DUP1 PUSH4 0xA591A6F4 EQ PUSH2 0x203 JUMPI DUP1 PUSH4 0xA694FC3A EQ PUSH2 0x21A JUMPI PUSH2 0x91 JUMP JUMPDEST DUP1 PUSH4 0x620EEDC EQ PUSH2 0x96 JUMPI DUP1 PUSH4 0x1959A002 EQ PUSH2 0xC1 JUMPI DUP1 PUSH4 0x2432BF30 EQ PUSH2 0x100 JUMPI DUP1 PUSH4 0x2E17DE78 EQ PUSH2 0x12B JUMPI DUP1 PUSH4 0x5C8C1294 EQ PUSH2 0x147 JUMPI JUMPDEST PUSH1 0x0 DUP1 REVERT JUMPDEST CALLVALUE DUP1 ISZERO PUSH2 0xA2 JUMPI PUSH1 0x0 DUP1 REVERT JUMPDEST POP PUSH2 0xAB PUSH2 0x236 JUMP JUMPDEST PUSH1 0x40 MLOAD PUSH2 0xB8 SWAP2 SWAP1 PUSH2 0x7F2 JUMP JUMPDEST PUSH1 0x40 MLOAD DUP1 SWAP2 SUB SWAP1 RETURN JUMPDEST CALLVALUE DUP1 ISZERO PUSH2 0xCD JUMPI PUSH1 0x0 DUP1 REVERT JUMPDEST POP PUSH2 0xE8 PUSH1 0x4 DUP1 CALLDATASIZE SUB DUP2 ADD SWAP1 PUSH2 0xE3 SWAP2 SWAP1 PUSH2 0x870 JUMP JUMPDEST PUSH2 0x23C JUMP JUMPDEST PUSH1 0x40 MLOAD PUSH2 0xF7 SWAP4 SWAP3 SWAP2 SWAP1 PUSH2 0x89D JUMP JUMPDEST PUSH1 0x40 MLOAD DUP1 SWAP2 SUB SWAP1 RETURN JUMPDEST CALLVALUE DUP1 ISZERO PUSH2 0x10C JUMPI PUSH1 0x0 DUP1 REVERT JUMPDEST POP PUSH2 0x115 PUSH2 0x266 JUMP JUMPDEST PUSH1 0x40 MLOAD PUSH2 0x122 SWAP2 SWAP1 PUSH2 0x933 JUMP JUMPDEST PUSH1 0x40 MLOAD DUP1 SWAP2 SUB SWAP1 RETURN JUMPDEST PUSH2 0x145 PUSH1 0x4 DUP1 CALLDATASIZE SUB DUP2 ADD SWAP1 PUSH2 0x140 SWAP2 SWAP1 PUSH2 0x97A JUMP JUMPDEST PUSH2 0x28C JUMP JUMPDEST STOP JUMPDEST CALLVALUE DUP1 ISZERO PUSH2 0x153 JUMPI PUSH1 0x0 DUP1 REVERT JUMPDEST POP PUSH2 0x15C PUSH2 0x3E1 JUMP JUMPDEST PUSH1 0x40 MLOAD PUSH2 0x169 SWAP2 SWAP1 PUSH2 0x7F2 JUMP JUMPDEST PUSH1 0x40 MLOAD DUP1 SWAP2 SUB SWAP1 RETURN JUMPDEST CALLVALUE DUP1 ISZERO PUSH2 0x17E JUMPI PUSH1 0x0 DUP1 REVERT JUMPDEST POP PUSH2 0x199 PUSH1 0x4 DUP1 CALLDATASIZE SUB DUP2 ADD SWAP1 PUSH2 0x194 SWAP2 SWAP1 PUSH2 0x870 JUMP JUMPDEST PUSH2 0x3ED JUMP JUMPDEST PUSH1 0x40 MLOAD PUSH2 0x1A6 SWAP2 SWAP1 PUSH2 0x7F2 JUMP JUMPDEST PUSH1 0x40 MLOAD DUP1 SWAP2 SUB SWAP1 RETURN JUMPDEST CALLVALUE DUP1 ISZERO PUSH2 0x1BB JUMPI PUSH1 0x0 DUP1 REVERT JUMPDEST POP PUSH2 0x1D6 PUSH1 0x4 DUP1 CALLDATASIZE SUB DUP2 ADD SWAP1 PUSH2 0x1D1 SWAP2 SWAP1 PUSH2 0x870 JUMP JUMPDEST PUSH2 0x4BE JUMP JUMPDEST STOP JUMPDEST CALLVALUE DUP1 ISZERO PUSH2 0x1E4 JUMPI PUSH1 0x0 DUP1 REVERT JUMPDEST POP PUSH2 0x1ED PUSH2 0x502 JUMP JUMPDEST PUSH1 0x40 MLOAD PUSH2 0x1FA SWAP2 SWAP1 PUSH2 0x7F2 JUMP JUMPDEST PUSH1 0x40 MLOAD DUP1 SWAP2 SUB SWAP1 RETURN JUMPDEST CALLVALUE DUP1 ISZERO PUSH2 0x20F JUMPI PUSH1 0x0 DUP1 REVERT JUMPDEST POP PUSH2 0x218 PUSH2 0x50C JUMP JUMPDEST STOP JUMPDEST PUSH2 0x234 PUSH1 0x4 DUP1 CALLDATASIZE SUB DUP2 ADD SWAP1 PUSH2 0x22F SWAP2 SWAP1 PUSH2 0x97A JUMP JUMPDEST PUSH2 0x5F8 JUMP JUMPDEST STOP JUMPDEST PUSH1 0x2 SLOAD DUP2 JUMP JUMPDEST PUSH1 0x3 PUSH1 0x20 MSTORE DUP1 PUSH1 0x0 MSTORE PUSH1 0x40 PUSH1 0x0 KECCAK256 PUSH1 0x0 SWAP2 POP SWAP1 POP DUP1 PUSH1 0x0 ADD SLOAD SWAP1 DUP1 PUSH1 0x1 ADD SLOAD SWAP1 DUP1 PUSH1 0x2 ADD SLOAD SWAP1 POP DUP4 JUMP JUMPDEST PUSH1 0x1 PUSH1 0x0 SWAP1 SLOAD SWAP1 PUSH2 0x100 EXP SWAP1 DIV PUSH20 0xFFFFFFFFFFFFFFFFFFFFFFFFFFFFFFFFFFFFFFFF AND DUP2 JUMP JUMPDEST PUSH1 0x0 DUP2 GT PUSH2 0x2CF JUMPI PUSH1 0x40 MLOAD PUSH32 0x8C379A000000000000000000000000000000000000000000000000000000000 DUP2 MSTORE PUSH1 0x4 ADD PUSH2 0x2C6 SWAP1 PUSH2 0xA04 JUMP JUMPDEST PUSH1 0x40 MLOAD DUP1 SWAP2 SUB SWAP1 REVERT JUMPDEST PUSH1 0x0 PUSH1 0x3 PUSH1 0x0 CALLER PUSH20 0xFFFFFFFFFFFFFFFFFFFFFFFFFFFFFFFFFFFFFFFF AND PUSH20 0xFFFFFFFFFFFFFFFFFFFFFFFFFFFFFFFFFFFFFFFF AND DUP2 MSTORE PUSH1 0x20 ADD SWAP1 DUP2 MSTORE PUSH1 0x20 ADD PUSH1 0x0 KECCAK256 SWAP1 POP DUP2 DUP2 PUSH1 0x0 ADD SLOAD LT ISZERO PUSH2 0x359 JUMPI PUSH1 0x40 MLOAD PUSH32 0x8C379A000000000000000000000000000000000000000000000000000000000 DUP2 MSTORE PUSH1 0x4 ADD PUSH2 0x350 SWAP1 PUSH2 0xA70 JUMP JUMPDEST PUSH1 0x40 MLOAD DUP1 SWAP2 SUB SWAP1 REVERT JUMPDEST PUSH2 0x362 CALLER PUSH2 0x6FB JUMP JUMPDEST DUP2 DUP2 PUSH1 0x0 ADD PUSH1 0x0 DUP3 DUP3 SLOAD PUSH2 0x376 SWAP2 SWAP1 PUSH2 0xABF JUMP JUMPDEST SWAP3 POP POP DUP2 SWAP1 SSTORE POP DUP2 PUSH1 0x2 PUSH1 0x0 DUP3 DUP3 SLOAD PUSH2 0x38F SWAP2 SWAP1 PUSH2 0xABF JUMP JUMPDEST SWAP3 POP POP DUP2 SWAP1 SSTORE POP CALLER PUSH20 0xFFFFFFFFFFFFFFFFFFFFFFFFFFFFFFFFFFFFFFFF AND PUSH2 0x8FC DUP4 SWAP1 DUP2 ISZERO MUL SWAP1 PUSH1 0x40 MLOAD PUSH1 0x0 PUSH1 0x40 MLOAD DUP1 DUP4 SUB DUP2 DUP6 DUP9 DUP9 CALL SWAP4 POP POP POP POP ISZERO DUP1 ISZERO PUSH2 0x3DC JUMPI RETURNDATASIZE PUSH1 0x0 DUP1 RETURNDATACOPY RETURNDATASIZE PUSH1 0x0 REVERT JUMPDEST POP POP POP JUMP JUMPDEST PUSH8 0xDE0B6B3A7640000 DUP2 JUMP JUMPDEST PUSH1 0x0 DUP1 PUSH1 0x3 PUSH1 0x0 DUP5 PUSH20 0xFFFFFFFFFFFFFFFFFFFFFFFFFFFFFFFFFFFFFFFF AND PUSH20 0xFFFFFFFFFFFFFFFFFFFFFFFFFFFFFFFFFFFFFFFF AND DUP2 MSTORE PUSH1 0x20 ADD SWAP1 DUP2 MSTORE PUSH1 0x20 ADD PUSH1 0x0 KECCAK256 SWAP1 POP PUSH1 0x0 DUP2 PUSH1 0x2 ADD SLOAD SUB PUSH2 0x447 JUMPI PUSH1 0x0 SWAP2 POP POP PUSH2 0x4B9 JUMP JUMPDEST PUSH1 0x0 DUP2 PUSH1 0x2 ADD SLOAD TIMESTAMP PUSH2 0x459 SWAP2 SWAP1 PUSH2 0xABF JUMP JUMPDEST SWAP1 POP PUSH1 0x0 DUP2 SUB PUSH2 0x471 JUMPI DUP2 PUSH1 0x1 ADD SLOAD SWAP3 POP POP POP PUSH2 0x4B9 JUMP JUMPDEST PUSH1 0x0 PUSH8 0xDE0B6B3A7640000 DUP1 DUP4 DUP6 PUSH1 0x0 ADD SLOAD PUSH2 0x48D SWAP2 SWAP1 PUSH2 0xAF3 JUMP JUMPDEST PUSH2 0x497 SWAP2 SWAP1 PUSH2 0xAF3 JUMP JUMPDEST PUSH2 0x4A1 SWAP2 SWAP1 PUSH2 0xB64 JUMP JUMPDEST SWAP1 POP DUP3 PUSH1 0x1 ADD SLOAD DUP2 PUSH2 0x4B3 SWAP2 SWAP1 PUSH2 0xB95 JUMP JUMPDEST SWAP4 POP POP POP POP JUMPDEST SWAP2 SWAP1 POP JUMP JUMPDEST DUP1 PUSH1 0x1 PUSH1 0x0 PUSH2 0x100 EXP DUP2 SLOAD DUP2 PUSH20 0xFFFFFFFFFFFFFFFFFFFFFFFFFFFFFFFFFFFFFFFF MUL NOT AND SWAP1 DUP4 PUSH20 0xFFFFFFFFFFFFFFFFFFFFFFFFFFFFFFFFFFFFFFFF AND MUL OR SWAP1 SSTORE POP POP JUMP JUMPDEST PUSH1 0x0 PUSH1 0x2 SLOAD SWAP1 POP SWAP1 JUMP JUMPDEST PUSH2 0x515 CALLER PUSH2 0x6FB JUMP JUMPDEST PUSH1 0x0 PUSH1 0x3 PUSH1 0x0 CALLER PUSH20 0xFFFFFFFFFFFFFFFFFFFFFFFFFFFFFFFFFFFFFFFF AND PUSH20 0xFFFFFFFFFFFFFFFFFFFFFFFFFFFFFFFFFFFFFFFF AND DUP2 MSTORE PUSH1 0x20 ADD SWAP1 DUP2 MSTORE PUSH1 0x20 ADD PUSH1 0x0 KECCAK256 SWAP1 POP PUSH1 0x1 PUSH1 0x0 SWAP1 SLOAD SWAP1 PUSH2 0x100 EXP SWAP1 DIV PUSH20 0xFFFFFFFFFFFFFFFFFFFFFFFFFFFFFFFFFFFFFFFF AND PUSH20 0xFFFFFFFFFFFFFFFFFFFFFFFFFFFFFFFFFFFFFFFF AND PUSH4 0x40C10F19 CALLER DUP4 PUSH1 0x1 ADD SLOAD PUSH1 0x40 MLOAD DUP4 PUSH4 0xFFFFFFFF AND PUSH1 0xE0 SHL DUP2 MSTORE PUSH1 0x4 ADD PUSH2 0x5B9 SWAP3 SWAP2 SWAP1 PUSH2 0xBD8 JUMP JUMPDEST PUSH1 0x0 PUSH1 0x40 MLOAD DUP1 DUP4 SUB DUP2 PUSH1 0x0 DUP8 DUP1 EXTCODESIZE ISZERO DUP1 ISZERO PUSH2 0x5D3 JUMPI PUSH1 0x0 DUP1 REVERT JUMPDEST POP GAS CALL ISZERO DUP1 ISZERO PUSH2 0x5E7 JUMPI RETURNDATASIZE PUSH1 0x0 DUP1 RETURNDATACOPY RETURNDATASIZE PUSH1 0x0 REVERT JUMPDEST POP POP POP POP PUSH1 0x0 DUP2 PUSH1 0x1 ADD DUP2 SWAP1 SSTORE POP POP JUMP JUMPDEST PUSH1 0x0 DUP2 GT PUSH2 0x63B JUMPI PUSH1 0x40 MLOAD PUSH32 0x8C379A000000000000000000000000000000000000000000000000000000000 DUP2 MSTORE PUSH1 0x4 ADD PUSH2 0x632 SWAP1 PUSH2 0xC4D JUMP JUMPDEST PUSH1 0x40 MLOAD DUP1 SWAP2 SUB SWAP1 REVERT JUMPDEST DUP1 CALLVALUE EQ PUSH2 0x67D JUMPI PUSH1 0x40 MLOAD PUSH32 0x8C379A000000000000000000000000000000000000000000000000000000000 DUP2 MSTORE PUSH1 0x4 ADD PUSH2 0x674 SWAP1 PUSH2 0xCB9 JUMP JUMPDEST PUSH1 0x40 MLOAD DUP1 SWAP2 SUB SWAP1 REVERT JUMPDEST PUSH2 0x686 CALLER PUSH2 0x6FB JUMP JUMPDEST DUP1 PUSH1 0x3 PUSH1 0x0 CALLER PUSH20 0xFFFFFFFFFFFFFFFFFFFFFFFFFFFFFFFFFFFFFFFF AND PUSH20 0xFFFFFFFFFFFFFFFFFFFFFFFFFFFFFFFFFFFFFFFF AND DUP2 MSTORE PUSH1 0x20 ADD SWAP1 DUP2 MSTORE PUSH1 0x20 ADD PUSH1 0x0 KECCAK256 PUSH1 0x0 ADD PUSH1 0x0 DUP3 DUP3 SLOAD PUSH2 0x6D8 SWAP2 SWAP1 PUSH2 0xB95 JUMP JUMPDEST SWAP3 POP POP DUP2 SWAP1 SSTORE POP DUP1 PUSH1 0x2 PUSH1 0x0 DUP3 DUP3 SLOAD PUSH2 0x6F1 SWAP2 SWAP1 PUSH2 0xB95 JUMP JUMPDEST SWAP3 POP POP DUP2 SWAP1 SSTORE POP POP JUMP JUMPDEST PUSH1 0x0 PUSH1 0x3 PUSH1 0x0 DUP4 PUSH20 0xFFFFFFFFFFFFFFFFFFFFFFFFFFFFFFFFFFFFFFFF AND PUSH20 0xFFFFFFFFFFFFFFFFFFFFFFFFFFFFFFFFFFFFFFFF AND DUP2 MSTORE PUSH1 0x20 ADD SWAP1 DUP2 MSTORE PUSH1 0x20 ADD PUSH1 0x0 KECCAK256 SWAP1 POP PUSH1 0x0 DUP2 PUSH1 0x2 ADD SLOAD SUB PUSH2 0x759 JUMPI TIMESTAMP DUP2 PUSH1 0x2 ADD DUP2 SWAP1 SSTORE POP POP PUSH2 0x7D6 JUMP JUMPDEST PUSH1 0x0 DUP2 PUSH1 0x2 ADD SLOAD TIMESTAMP PUSH2 0x76B SWAP2 SWAP1 PUSH2 0xABF JUMP JUMPDEST SWAP1 POP PUSH1 0x0 DUP2 SUB PUSH2 0x77C JUMPI POP POP PUSH2 0x7D6 JUMP JUMPDEST PUSH1 0x0 PUSH8 0xDE0B6B3A7640000 DUP1 DUP4 DUP6 PUSH1 0x0 ADD SLOAD PUSH2 0x798 SWAP2 SWAP1 PUSH2 0xAF3 JUMP JUMPDEST PUSH2 0x7A2 SWAP2 SWAP1 PUSH2 0xAF3 JUMP JUMPDEST PUSH2 0x7AC SWAP2 SWAP1 PUSH2 0xB64 JUMP JUMPDEST SWAP1 POP DUP1 DUP4 PUSH1 0x1 ADD PUSH1 0x0 DUP3 DUP3 SLOAD PUSH2 0x7C2 SWAP2 SWAP1 PUSH2 0xB95 JUMP JUMPDEST SWAP3 POP POP DUP2 SWAP1 SSTORE POP TIMESTAMP DUP4 PUSH1 0x2 ADD DUP2 SWAP1 SSTORE POP POP POP POP JUMPDEST POP JUMP JUMPDEST PUSH1 0x0 DUP2 SWAP1 POP SWAP2 SWAP1 POP JUMP JUMPDEST PUSH2 0x7EC DUP2 PUSH2 0x7D9 JUMP JUMPDEST DUP3 MSTORE POP POP JUMP JUMPDEST PUSH1 0x0 PUSH1 0x20 DUP3 ADD SWAP1 POP PUSH2 0x807 PUSH1 0x0 DUP4 ADD DUP5 PUSH2 0x7E3 JUMP JUMPDEST SWAP3 SWAP2 POP POP JUMP JUMPDEST PUSH1 0x0 DUP1 REVERT JUMPDEST PUSH1 0x0 PUSH20 0xFFFFFFFFFFFFFFFFFFFFFFFFFFFFFFFFFFFFFFFF DUP3 AND SWAP1 POP SWAP2 SWAP1 POP JUMP JUMPDEST PUSH1 0x0 PUSH2 0x83D DUP3 PUSH2 0x812 JUMP JUMPDEST SWAP1 POP SWAP2 SWAP1 POP JUMP JUMPDEST PUSH2 0x84D DUP2 PUSH2 0x832 JUMP JUMPDEST DUP2 EQ PUSH2 0x858 JUMPI PUSH1 0x0 DUP1 REVERT JUMPDEST POP JUMP JUMPDEST PUSH1 0x0 DUP2 CALLDATALOAD SWAP1 POP PUSH2 0x86A DUP2 PUSH2 0x844 JUMP JUMPDEST SWAP3 SWAP2 POP POP JUMP JUMPDEST PUSH1 0x0 PUSH1 0x20 DUP3 DUP5 SUB SLT ISZERO PUSH2 0x886 JUMPI PUSH2 0x885 PUSH2 0x80D JUMP JUMPDEST JUMPDEST PUSH1 0x0 PUSH2 0x894 DUP5 DUP3 DUP6 ADD PUSH2 0x85B JUMP JUMPDEST SWAP2 POP POP SWAP3 SWAP2 POP POP JUMP JUMPDEST PUSH1 0x0 PUSH1 0x60 DUP3 ADD SWAP1 POP PUSH2 0x8B2 PUSH1 0x0 DUP4 ADD DUP7 PUSH2 0x7E3 JUMP JUMPDEST PUSH2 0x8BF PUSH1 0x20 DUP4 ADD DUP6 PUSH2 0x7E3 JUMP JUMPDEST PUSH2 0x8CC PUSH1 0x40 DUP4 ADD DUP5 PUSH2 0x7E3 JUMP JUMPDEST SWAP5 SWAP4 POP POP POP POP JUMP JUMPDEST PUSH1 0x0 DUP2 SWAP1 POP SWAP2 SWAP1 POP JUMP JUMPDEST PUSH1 0x0 PUSH2 0x8F9 PUSH2 0x8F4 PUSH2 0x8EF DUP5 PUSH2 0x812 JUMP JUMPDEST PUSH2 0x8D4 JUMP JUMPDEST PUSH2 0x812 JUMP JUMPDEST SWAP1 POP SWAP2 SWAP1 POP JUMP JUMPDEST PUSH1 0x0 PUSH2 0x90B DUP3 PUSH2 0x8DE JUMP JUMPDEST SWAP1 POP SWAP2 SWAP1 POP JUMP JUMPDEST PUSH1 0x0 PUSH2 0x91D DUP3 PUSH2 0x900 JUMP JUMPDEST SWAP1 POP SWAP2 SWAP1 POP JUMP JUMPDEST PUSH2 0x92D DUP2 PUSH2 0x912 JUMP JUMPDEST DUP3 MSTORE POP POP JUMP JUMPDEST PUSH1 0x0 PUSH1 0x20 DUP3 ADD SWAP1 POP PUSH2 0x948 PUSH1 0x0 DUP4 ADD DUP5 PUSH2 0x924 JUMP JUMPDEST SWAP3 SWAP2 POP POP JUMP JUMPDEST PUSH2 0x957 DUP2 PUSH2 0x7D9 JUMP JUMPDEST DUP2 EQ PUSH2 0x962 JUMPI PUSH1 0x0 DUP1 REVERT JUMPDEST POP JUMP JUMPDEST PUSH1 0x0 DUP2 CALLDATALOAD SWAP1 POP PUSH2 0x974 DUP2 PUSH2 0x94E JUMP JUMPDEST SWAP3 SWAP2 POP POP JUMP JUMPDEST PUSH1 0x0 PUSH1 0x20 DUP3 DUP5 SUB SLT ISZERO PUSH2 0x990 JUMPI PUSH2 0x98F PUSH2 0x80D JUMP JUMPDEST JUMPDEST PUSH1 0x0 PUSH2 0x99E DUP5 DUP3 DUP6 ADD PUSH2 0x965 JUMP JUMPDEST SWAP2 POP POP SWAP3 SWAP2 POP POP JUMP JUMPDEST PUSH1 0x0 DUP3 DUP3 MSTORE PUSH1 0x20 DUP3 ADD SWAP1 POP SWAP3 SWAP2 POP POP JUMP JUMPDEST PUSH32 0x43616E6E6F7420756E7374616B65203000000000000000000000000000000000 PUSH1 0x0 DUP3 ADD MSTORE POP JUMP JUMPDEST PUSH1 0x0 PUSH2 0x9EE PUSH1 0x10 DUP4 PUSH2 0x9A7 JUMP JUMPDEST SWAP2 POP PUSH2 0x9F9 DUP3 PUSH2 0x9B8 JUMP JUMPDEST PUSH1 0x20 DUP3 ADD SWAP1 POP SWAP2 SWAP1 POP JUMP JUMPDEST PUSH1 0x0 PUSH1 0x20 DUP3 ADD SWAP1 POP DUP2 DUP2 SUB PUSH1 0x0 DUP4 ADD MSTORE PUSH2 0xA1D DUP2 PUSH2 0x9E1 JUMP JUMPDEST SWAP1 POP SWAP2 SWAP1 POP JUMP JUMPDEST PUSH32 0x4E6F7420656E6F756768207374616B6564000000000000000000000000000000 PUSH1 0x0 DUP3 ADD MSTORE POP JUMP JUMPDEST PUSH1 0x0 PUSH2 0xA5A PUSH1 0x11 DUP4 PUSH2 0x9A7 JUMP JUMPDEST SWAP2 POP PUSH2 0xA65 DUP3 PUSH2 0xA24 JUMP JUMPDEST PUSH1 0x20 DUP3 ADD SWAP1 POP SWAP2 SWAP1 POP JUMP JUMPDEST PUSH1 0x0 PUSH1 0x20 DUP3 ADD SWAP1 POP DUP2 DUP2 SUB PUSH1 0x0 DUP4 ADD MSTORE PUSH2 0xA89 DUP2 PUSH2 0xA4D JUMP JUMPDEST SWAP1 POP SWAP2 SWAP1 POP JUMP JUMPDEST PUSH32 0x4E487B7100000000000000000000000000000000000000000000000000000000 PUSH1 0x0 MSTORE PUSH1 0x11 PUSH1 0x4 MSTORE PUSH1 0x24 PUSH1 0x0 REVERT JUMPDEST PUSH1 0x0 PUSH2 0xACA DUP3 PUSH2 0x7D9 JUMP JUMPDEST SWAP2 POP PUSH2 0xAD5 DUP4 PUSH2 0x7D9 JUMP JUMPDEST SWAP3 POP DUP3 DUP3 SUB SWAP1 POP DUP2 DUP2 GT ISZERO PUSH2 0xAED JUMPI PUSH2 0xAEC PUSH2 0xA90 JUMP JUMPDEST JUMPDEST SWAP3 SWAP2 POP POP JUMP JUMPDEST PUSH1 0x0 PUSH2 0xAFE DUP3 PUSH2 0x7D9 JUMP JUMPDEST SWAP2 POP PUSH2 0xB09 DUP4 PUSH2 0x7D9 JUMP JUMPDEST SWAP3 POP DUP3 DUP3 MUL PUSH2 0xB17 DUP2 PUSH2 0x7D9 JUMP JUMPDEST SWAP2 POP DUP3 DUP3 DIV DUP5 EQ DUP4 ISZERO OR PUSH2 0xB2E JUMPI PUSH2 0xB2D PUSH2 0xA90 JUMP JUMPDEST JUMPDEST POP SWAP3 SWAP2 POP POP JUMP JUMPDEST PUSH32 0x4E487B7100000000000000000000000000000000000000000000000000000000 PUSH1 0x0 MSTORE PUSH1 0x12 PUSH1 0x4 MSTORE PUSH1 0x24 PUSH1 0x0 REVERT JUMPDEST PUSH1 0x0 PUSH2 0xB6F DUP3 PUSH2 0x7D9 JUMP JUMPDEST SWAP2 POP PUSH2 0xB7A DUP4 PUSH2 0x7D9 JUMP JUMPDEST SWAP3 POP DUP3 PUSH2 0xB8A JUMPI PUSH2 0xB89 PUSH2 0xB35 JUMP JUMPDEST JUMPDEST DUP3 DUP3 DIV SWAP1 POP SWAP3 SWAP2 POP POP JUMP JUMPDEST PUSH1 0x0 PUSH2 0xBA0 DUP3 PUSH2 0x7D9 JUMP JUMPDEST SWAP2 POP PUSH2 0xBAB DUP4 PUSH2 0x7D9 JUMP JUMPDEST SWAP3 POP DUP3 DUP3 ADD SWAP1 POP DUP1 DUP3 GT ISZERO PUSH2 0xBC3 JUMPI PUSH2 0xBC2 PUSH2 0xA90 JUMP JUMPDEST JUMPDEST SWAP3 SWAP2 POP POP JUMP JUMPDEST PUSH2 0xBD2 DUP2 PUSH2 0x832 JUMP JUMPDEST DUP3 MSTORE POP POP JUMP JUMPDEST PUSH1 0x0 PUSH1 0x40 DUP3 ADD SWAP1 POP PUSH2 0xBED PUSH1 0x0 DUP4 ADD DUP6 PUSH2 0xBC9 JUMP JUMPDEST PUSH2 0xBFA PUSH1 0x20 DUP4 ADD DUP5 PUSH2 0x7E3 JUMP JUMPDEST SWAP4 SWAP3 POP POP POP JUMP JUMPDEST PUSH32 0x43616E6E6F74207374616B652030000000000000000000000000000000000000 PUSH1 0x0 DUP3 ADD MSTORE POP JUMP JUMPDEST PUSH1 0x0 PUSH2 0xC37 PUSH1 0xE DUP4 PUSH2 0x9A7 JUMP JUMPDEST SWAP2 POP PUSH2 0xC42 DUP3 PUSH2 0xC01 JUMP JUMPDEST PUSH1 0x20 DUP3 ADD SWAP1 POP SWAP2 SWAP1 POP JUMP JUMPDEST PUSH1 0x0 PUSH1 0x20 DUP3 ADD SWAP1 POP DUP2 DUP2 SUB PUSH1 0x0 DUP4 ADD MSTORE PUSH2 0xC66 DUP2 PUSH2 0xC2A JUMP JUMPDEST SWAP1 POP SWAP2 SWAP1 POP JUMP JUMPDEST PUSH32 0x45544820616D6F756E74206D69736D6174636800000000000000000000000000 PUSH1 0x0 DUP3 ADD MSTORE POP JUMP JUMPDEST PUSH1 0x0 PUSH2 0xCA3 PUSH1 0x13 DUP4 PUSH2 0x9A7 JUMP JUMPDEST SWAP2 POP PUSH2 0xCAE DUP3 PUSH2 0xC6D JUMP JUMPDEST PUSH1 0x20 DUP3 ADD SWAP1 POP SWAP2 SWAP1 POP JUMP JUMPDEST PUSH1 0x0 PUSH1 0x20 DUP3 ADD SWAP1 POP DUP2 DUP2 SUB PUSH1 0x0 DUP4 ADD MSTORE PUSH2 0xCD2 DUP2 PUSH2 0xC96 JUMP JUMPDEST SWAP1 POP SWAP2 SWAP1 POP JUMP INVALID LOG2 PUSH5 0x6970667358 0x22 SLT KECCAK256 SWAP8 0xBB 0xC5 RETURNDATASIZE CHAINID 0xDD ADDMOD DUP8 DELEGATECALL 0xAD CODESIZE GASPRICE 0xDE PUSH30 0x213040664A396B9BC0E0334D013D8CDE67BE64736F6C6343000814003300 "},"methodIdentifiers":{"REWARD_PER_SEC_PER_ETH()":"5c8c1294","claimEmissions()":"a591a6f4","getRewards(address)":"79ee54f7","sansuCoin()":"2432bf30","stake(uint256)":"a694fc3a","totalStaked()":"817b1cd2","totalStakedBalance()":"0620eedc","unstake(uint256)":"2e17de78","updateToken(address)":"7ad3def2","userInfo(address)":"1959a002"}}}}}