{
  "_format": "hh-sol-artifact-1",
  "contractName": "StakingWithEmissions",
  "sourceName": "contracts/StakingWithEmissions.sol",
  "abi": [
    {
      "inputs": [
        {
          "internalType": "contract ISansuCoin",
          "name": "_token",
          "type": "address"
        }
      ],
      "stateMutability": "nonpayable",
      "type": "constructor"
    },
    {
      "inputs": [],
      "name": "REWARD_PER_SEC_PER_ETH",
      "outputs": [
        {
          "internalType": "uint256",
          "name": "",
          "type": "uint256"
        }
      ],
      "stateMutability": "view",
      "type": "function"
    },
    {
      "inputs": [],
      "name": "claimEmissions",
      "outputs": [],
      "stateMutability": "nonpayable",
      "type": "function"
    },
    {
      "inputs": [
        {
          "internalType": "address",
          "name": "_user",
          "type": "address"
        }
      ],
      "name": "getRewards",
      "outputs": [
        {
          "internalType": "uint256",
          "name": "",
          "type": "uint256"
        }
      ],
      "stateMutability": "view",
      "type": "function"
    },
    {
      "inputs": [],
      "name": "sansuCoin",
      "outputs": [
        {
          "internalType": "contract ISansuCoin",
          "name": "",
          "type": "address"
        }
      ],
      "stateMutability": "view",
      "type": "function"
    },
    {
      "inputs": [
        {
          "internalType": "uint256",
          "name": "_amount",
          "type": "uint256"
        }
      ],
      "name": "stake",
      "outputs": [],
      "stateMutability": "payable",
      "type": "function"
    },
    {
      "inputs": [],
      "name": "totalStaked",
      "outputs": [
        {
          "internalType": "uint256",
          "name": "",
          "type": "uint256"
        }
      ],
      "stateMutability": "view",
      "type": "function"
    },
    {
      "inputs": [],
      "name": "totalStakedBalance",
      "outputs": [
        {
          "internalType": "uint256",
          "name": "",
          "type": "uint256"
        }
      ],
      "stateMutability": "view",
      "type": "function"
    },
    {
      "inputs": [
        {
          "internalType": "uint256",
          "name": "_amount",
          "type": "uint256"
        }
      ],
      "name": "unstake",
      "outputs": [],
      "stateMutability": "payable",
      "type": "function"
    },
    {
      "inputs": [
        {
          "internalType": "address",
          "name": "_newToken",
          "type": "address"
        }
      ],
      "name": "updateToken",
      "outputs": [],
      "stateMutability": "nonpayable",
      "type": "function"
    },
    {
      "inputs": [
        {
          "internalType": "address",
          "name": "",
          "type": "address"
        }
      ],
      "name": "userInfo",
      "outputs": [
        {
          "internalType": "uint256",
          "name": "stakedAmount",
          "type": "uint256"
        },
        {
          "internalType": "uint256",
          "name": "rewardDebt",
          "type": "uint256"
        },
        {
          "internalType": "uint256",
          "name": "lastUpdate",
          "type": "uint256"
        }
      ],
      "stateMutability": "view",
      "type": "function"
    }
  ],
  "bytecode": "0x608060405234801561001057600080fd5b5060405162000e3c38038062000e3c833981810160405281019061003491906100f0565b80600160006101000a81548173ffffffffffffffffffffffffffffffffffffffff021916908373ffffffffffffffffffffffffffffffffffffffff1602179055505061011d565b600080fd5b600073ffffffffffffffffffffffffffffffffffffffff82169050919050565b60006100ab82610080565b9050919050565b60006100bd826100a0565b9050919050565b6100cd816100b2565b81146100d857600080fd5b50565b6000815190506100ea816100c4565b92915050565b6000602082840312156101065761010561007b565b5b6000610114848285016100db565b91505092915050565b610d0f806200012d6000396000f3fe6080604052600436106100915760003560e01c806379ee54f71161005957806379ee54f7146101725780637ad3def2146101af578063817b1cd2146101d8578063a591a6f414610203578063a694fc3a1461021a57610091565b80630620eedc146100965780631959a002146100c15780632432bf30146101005780632e17de781461012b5780635c8c129414610147575b600080fd5b3480156100a257600080fd5b506100ab610236565b6040516100b891906107f2565b60405180910390f35b3480156100cd57600080fd5b506100e860048036038101906100e39190610870565b61023c565b6040516100f79392919061089d565b60405180910390f35b34801561010c57600080fd5b50610115610266565b6040516101229190610933565b60405180910390f35b6101456004803603810190610140919061097a565b61028c565b005b34801561015357600080fd5b5061015c6103e1565b60405161016991906107f2565b60405180910390f35b34801561017e57600080fd5b5061019960048036038101906101949190610870565b6103ed565b6040516101a691906107f2565b60405180910390f35b3480156101bb57600080fd5b506101d660048036038101906101d19190610870565b6104be565b005b3480156101e457600080fd5b506101ed610502565b6040516101fa91906107f2565b60405180910390f35b34801561020f57600080fd5b5061021861050c565b005b610234600480360381019061022f919061097a565b6105f8565b005b60025481565b60036020528060005260406000206000915090508060000154908060010154908060020154905083565b600160009054906101000a900473ffffffffffffffffffffffffffffffffffffffff1681565b600081116102cf576040517f08c379a00000000000000000000000000000000000000000000000000000000081526004016102c690610a04565b60405180910390fd5b6000600360003373ffffffffffffffffffffffffffffffffffffffff1673ffffffffffffffffffffffffffffffffffffffff16815260200190815260200160002090508181600001541015610359576040517f08c379a000000000000000000000000000000000000000000000000000000000815260040161035090610a70565b60405180910390fd5b610362336106fb565b818160000160008282546103769190610abf565b92505081905550816002600082825461038f9190610abf565b925050819055503373ffffffffffffffffffffffffffffffffffffffff166108fc839081150290604051600060405180830381858888f193505050501580156103dc573d6000803e3d6000fd5b505050565b670de0b6b3a764000081565b600080600360008473ffffffffffffffffffffffffffffffffffffffff1673ffffffffffffffffffffffffffffffffffffffff168152602001908152602001600020905060008160020154036104475760009150506104b9565b60008160020154426104599190610abf565b905060008103610471578160010154925050506104b9565b6000670de0b6b3a76400008083856000015461048d9190610af3565b6104979190610af3565b6104a19190610b64565b90508260010154816104b39190610b95565b93505050505b919050565b80600160006101000a81548173ffffffffffffffffffffffffffffffffffffffff021916908373ffffffffffffffffffffffffffffffffffffffff16021790555050565b6000600254905090565b610515336106fb565b6000600360003373ffffffffffffffffffffffffffffffffffffffff1673ffffffffffffffffffffffffffffffffffffffff1681526020019081526020016000209050600160009054906101000a900473ffffffffffffffffffffffffffffffffffffffff1673ffffffffffffffffffffffffffffffffffffffff166340c10f193383600101546040518363ffffffff1660e01b81526004016105b9929190610bd8565b600060405180830381600087803b1580156105d357600080fd5b505af11580156105e7573d6000803e3d6000fd5b505050506000816001018190555050565b6000811161063b576040517f08c379a000000000000000000000000000000000000000000000000000000000815260040161063290610c4d565b60405180910390fd5b80341461067d576040517f08c379a000000000000000000000000000000000000000000000000000000000815260040161067490610cb9565b60405180910390fd5b610686336106fb565b80600360003373ffffffffffffffffffffffffffffffffffffffff1673ffffffffffffffffffffffffffffffffffffffff16815260200190815260200160002060000160008282546106d89190610b95565b9250508190555080600260008282546106f19190610b95565b9250508190555050565b6000600360008373ffffffffffffffffffffffffffffffffffffffff1673ffffffffffffffffffffffffffffffffffffffff1681526020019081526020016000209050600081600201540361075957428160020181905550506107d6565b600081600201544261076b9190610abf565b90506000810361077c5750506107d6565b6000670de0b6b3a7640000808385600001546107989190610af3565b6107a29190610af3565b6107ac9190610b64565b9050808360010160008282546107c29190610b95565b925050819055504283600201819055505050505b50565b6000819050919050565b6107ec816107d9565b82525050565b600060208201905061080760008301846107e3565b92915050565b600080fd5b600073ffffffffffffffffffffffffffffffffffffffff82169050919050565b600061083d82610812565b9050919050565b61084d81610832565b811461085857600080fd5b50565b60008135905061086a81610844565b92915050565b6000602082840312156108865761088561080d565b5b60006108948482850161085b565b91505092915050565b60006060820190506108b260008301866107e3565b6108bf60208301856107e3565b6108cc60408301846107e3565b949350505050565b6000819050919050565b60006108f96108f46108ef84610812565b6108d4565b610812565b9050919050565b600061090b826108de565b9050919050565b600061091d82610900565b9050919050565b61092d81610912565b82525050565b60006020820190506109486000830184610924565b92915050565b610957816107d9565b811461096257600080fd5b50565b6000813590506109748161094e565b92915050565b6000602082840312156109905761098f61080d565b5b600061099e84828501610965565b91505092915050565b600082825260208201905092915050565b7f43616e6e6f7420756e7374616b65203000000000000000000000000000000000600082015250565b60006109ee6010836109a7565b91506109f9826109b8565b602082019050919050565b60006020820190508181036000830152610a1d816109e1565b9050919050565b7f4e6f7420656e6f756768207374616b6564000000000000000000000000000000600082015250565b6000610a5a6011836109a7565b9150610a6582610a24565b602082019050919050565b60006020820190508181036000830152610a8981610a4d565b9050919050565b7f4e487b7100000000000000000000000000000000000000000000000000000000600052601160045260246000fd5b6000610aca826107d9565b9150610ad5836107d9565b9250828203905081811115610aed57610aec610a90565b5b92915050565b6000610afe826107d9565b9150610b09836107d9565b9250828202610b17816107d9565b91508282048414831517610b2e57610b2d610a90565b5b5092915050565b7f4e487b7100000000000000000000000000000000000000000000000000000000600052601260045260246000fd5b6000610b6f826107d9565b9150610b7a836107d9565b925082610b8a57610b89610b35565b5b828204905092915050565b6000610ba0826107d9565b9150610bab836107d9565b9250828201905080821115610bc357610bc2610a90565b5b92915050565b610bd281610832565b82525050565b6000604082019050610bed6000830185610bc9565b610bfa60208301846107e3565b9392505050565b7f43616e6e6f74207374616b652030000000000000000000000000000000000000600082015250565b6000610c37600e836109a7565b9150610c4282610c01565b602082019050919050565b60006020820190508181036000830152610c6681610c2a565b9050919050565b7f45544820616d6f756e74206d69736d6174636800000000000000000000000000600082015250565b6000610ca36013836109a7565b9150610cae82610c6d565b602082019050919050565b60006020820190508181036000830152610cd281610c96565b905091905056fea264697066735822122097bbc53d46dd0887f4ad383ade7d213040664a396b9bc0e0334d013d8cde67be64736f6c63430008140033",
  "linkReferences": {},
  "deployedLinkReferences": {}
}