{
  "_format": "hh-sol-artifact-1",
  "contractName": "StakingWithEmissions",
  "sourceName": "contracts/StakingWithEmissions.sol",
  "abi": [
    {
      "inputs": [
        {
          "internalType": "contract ISansuCoin",
          "name": "_token",
          "type": "address"
        }
      ],
      "stateMutability": "nonpayable",
      "type": "constructor"
    },
    {
      "inputs": [],
      "name": "REWARD_PER_SEC_PER_ETH",
      "outputs": [
        {
          "internalType": "uint256",
          "name": "",
          "type": "uint256"
        }
      ],
      "stateMutability": "view",
      "type": "function"
    },
    {
      "inputs": [],
      "name": "claimEmissions",
      "outputs": [],
      "stateMutability": "nonpayable",
      "type": "function"
    },
    {
      "inputs": [
        {
          "internalType": "address",
          "name": "_user",
          "type": "address"
        }
      ],
      "name": "getRewards",
      "outputs": [
        {
          "internalType": "uint256",
          "name": "",
          "type": "uint256"
        }
      ],
      "stateMutability": "view",
      "type": "function"
    },
    {
      "inputs": [],
      "name": "sansuCoin",
      "outputs": [
        {
          "internalType": "contract ISansuCoin",
          "name": "",
          "type": "address"
        }
      ],
      "stateMutability": "view",
      "type": "function"
    },
    {
      "inputs": [
        {
          "internalType": "uint256",
          "name": "_amount",
          "type": "uint256"
        }
      ],
      "name": "stake",
      "outputs": [],
      "stateMutability": "payable",
      "type": "function"
    },
    {
      "inputs": [],
      "name": "totalStake",
      "outputs": [
        {
          "internalType": "uint256",
          "name": "",
          "type": "uint256"
        }
      ],
      "stateMutability": "view",
      "type": "function"
    },
    {
      "inputs": [
        {
          "internalType": "uint256",
          "name": "_amount",
          "type": "uint256"
        }
      ],
      "name": "unstake",
      "outputs": [],
      "stateMutability": "payable",
      "type": "function"
    },
    {
      "inputs": [
        {
          "internalType": "address",
          "name": "_newToken",
          "type": "address"
        }
      ],
      "name": "updateToken",
      "outputs": [],
      "stateMutability": "nonpayable",
      "type": "function"
    },
    {
      "inputs": [
        {
          "internalType": "address",
          "name": "",
          "type": "address"
        }
      ],
      "name": "userInfo",
      "outputs": [
        {
          "internalType": "uint256",
          "name": "stakedAmount",
          "type": "uint256"
        },
        {
          "internalType": "uint256",
          "name": "rewardDebt",
          "type": "uint256"
        },
        {
          "internalType": "uint256",
          "name": "lastUpdate",
          "type": "uint256"
        }
      ],
      "stateMutability": "view",
      "type": "function"
    }
  ],
  "bytecode": "0x608060405234801561001057600080fd5b50604051610df9380380610df9833981810160405281019061003291906100ee565b80600260006101000a81548173ffffffffffffffffffffffffffffffffffffffff021916908373ffffffffffffffffffffffffffffffffffffffff1602179055505061011b565b600080fd5b600073ffffffffffffffffffffffffffffffffffffffff82169050919050565b60006100a98261007e565b9050919050565b60006100bb8261009e565b9050919050565b6100cb816100b0565b81146100d657600080fd5b50565b6000815190506100e8816100c2565b92915050565b60006020828403121561010457610103610079565b5b6000610112848285016100d9565b91505092915050565b610ccf8061012a6000396000f3fe6080604052600436106100865760003560e01c806379ee54f71161005957806379ee54f71461013c5780637ad3def2146101795780638b0e9f3f146101a2578063a591a6f4146101cd578063a694fc3a146101e457610086565b80631959a0021461008b5780632432bf30146100ca5780632e17de78146100f55780635c8c129414610111575b600080fd5b34801561009757600080fd5b506100b260048036038101906100ad91906107fc565b610200565b6040516100c193929190610842565b60405180910390f35b3480156100d657600080fd5b506100df61022a565b6040516100ec91906108d8565b60405180910390f35b61010f600480360381019061010a919061091f565b610250565b005b34801561011d57600080fd5b506101266103a5565b604051610133919061094c565b60405180910390f35b34801561014857600080fd5b50610163600480360381019061015e91906107fc565b6103b1565b604051610170919061094c565b60405180910390f35b34801561018557600080fd5b506101a0600480360381019061019b91906107fc565b610482565b005b3480156101ae57600080fd5b506101b76104c6565b6040516101c4919061094c565b60405180910390f35b3480156101d957600080fd5b506101e26104cc565b005b6101fe60048036038101906101f9919061091f565b6105b8565b005b60036020528060005260406000206000915090508060000154908060010154908060020154905083565b600260009054906101000a900473ffffffffffffffffffffffffffffffffffffffff1681565b60008111610293576040517f08c379a000000000000000000000000000000000000000000000000000000000815260040161028a906109c4565b60405180910390fd5b6000600360003373ffffffffffffffffffffffffffffffffffffffff1673ffffffffffffffffffffffffffffffffffffffff1681526020019081526020016000209050818160000154101561031d576040517f08c379a000000000000000000000000000000000000000000000000000000000815260040161031490610a30565b60405180910390fd5b610326336106bb565b8181600001600082825461033a9190610a7f565b9250508190555081600160008282546103539190610a7f565b925050819055503373ffffffffffffffffffffffffffffffffffffffff166108fc839081150290604051600060405180830381858888f193505050501580156103a0573d6000803e3d6000fd5b505050565b670de0b6b3a764000081565b600080600360008473ffffffffffffffffffffffffffffffffffffffff1673ffffffffffffffffffffffffffffffffffffffff1681526020019081526020016000209050600081600201540361040b57600091505061047d565b600081600201544261041d9190610a7f565b9050600081036104355781600101549250505061047d565b6000670de0b6b3a7640000808385600001546104519190610ab3565b61045b9190610ab3565b6104659190610b24565b90508260010154816104779190610b55565b93505050505b919050565b80600260006101000a81548173ffffffffffffffffffffffffffffffffffffffff021916908373ffffffffffffffffffffffffffffffffffffffff16021790555050565b60015481565b6104d5336106bb565b6000600360003373ffffffffffffffffffffffffffffffffffffffff1673ffffffffffffffffffffffffffffffffffffffff1681526020019081526020016000209050600260009054906101000a900473ffffffffffffffffffffffffffffffffffffffff1673ffffffffffffffffffffffffffffffffffffffff166340c10f193383600101546040518363ffffffff1660e01b8152600401610579929190610b98565b600060405180830381600087803b15801561059357600080fd5b505af11580156105a7573d6000803e3d6000fd5b505050506000816001018190555050565b600081116105fb576040517f08c379a00000000000000000000000000000000000000000000000000000000081526004016105f290610c0d565b60405180910390fd5b80341461063d576040517f08c379a000000000000000000000000000000000000000000000000000000000815260040161063490610c79565b60405180910390fd5b610646336106bb565b80600360003373ffffffffffffffffffffffffffffffffffffffff1673ffffffffffffffffffffffffffffffffffffffff16815260200190815260200160002060000160008282546106989190610b55565b9250508190555080600160008282546106b19190610b55565b9250508190555050565b6000600360008373ffffffffffffffffffffffffffffffffffffffff1673ffffffffffffffffffffffffffffffffffffffff168152602001908152602001600020905060008160020154036107195742816002018190555050610796565b600081600201544261072b9190610a7f565b90506000810361073c575050610796565b6000670de0b6b3a7640000808385600001546107589190610ab3565b6107629190610ab3565b61076c9190610b24565b9050808360010160008282546107829190610b55565b925050819055504283600201819055505050505b50565b600080fd5b600073ffffffffffffffffffffffffffffffffffffffff82169050919050565b60006107c98261079e565b9050919050565b6107d9816107be565b81146107e457600080fd5b50565b6000813590506107f6816107d0565b92915050565b60006020828403121561081257610811610799565b5b6000610820848285016107e7565b91505092915050565b6000819050919050565b61083c81610829565b82525050565b60006060820190506108576000830186610833565b6108646020830185610833565b6108716040830184610833565b949350505050565b6000819050919050565b600061089e6108996108948461079e565b610879565b61079e565b9050919050565b60006108b082610883565b9050919050565b60006108c2826108a5565b9050919050565b6108d2816108b7565b82525050565b60006020820190506108ed60008301846108c9565b92915050565b6108fc81610829565b811461090757600080fd5b50565b600081359050610919816108f3565b92915050565b60006020828403121561093557610934610799565b5b60006109438482850161090a565b91505092915050565b60006020820190506109616000830184610833565b92915050565b600082825260208201905092915050565b7f43616e6e6f7420756e7374616b65203000000000000000000000000000000000600082015250565b60006109ae601083610967565b91506109b982610978565b602082019050919050565b600060208201905081810360008301526109dd816109a1565b9050919050565b7f4e6f7420656e6f756768207374616b6564000000000000000000000000000000600082015250565b6000610a1a601183610967565b9150610a25826109e4565b602082019050919050565b60006020820190508181036000830152610a4981610a0d565b9050919050565b7f4e487b7100000000000000000000000000000000000000000000000000000000600052601160045260246000fd5b6000610a8a82610829565b9150610a9583610829565b9250828203905081811115610aad57610aac610a50565b5b92915050565b6000610abe82610829565b9150610ac983610829565b9250828202610ad781610829565b91508282048414831517610aee57610aed610a50565b5b5092915050565b7f4e487b7100000000000000000000000000000000000000000000000000000000600052601260045260246000fd5b6000610b2f82610829565b9150610b3a83610829565b925082610b4a57610b49610af5565b5b828204905092915050565b6000610b6082610829565b9150610b6b83610829565b9250828201905080821115610b8357610b82610a50565b5b92915050565b610b92816107be565b82525050565b6000604082019050610bad6000830185610b89565b610bba6020830184610833565b9392505050565b7f43616e6e6f74207374616b652030000000000000000000000000000000000000600082015250565b6000610bf7600e83610967565b9150610c0282610bc1565b602082019050919050565b60006020820190508181036000830152610c2681610bea565b9050919050565b7f45544820616d6f756e74206d69736d6174636800000000000000000000000000600082015250565b6000610c63601383610967565b9150610c6e82610c2d565b602082019050919050565b60006020820190508181036000830152610c9281610c56565b905091905056fea2646970667358221220a5cc90704d89f3c20dd6c96817d7fd8613730b9541f788be4eace07f1c653a1764736f6c63430008140033",
  "linkReferences": {},
  "deployedLinkReferences": {}
}