{
  "_format": "hh-sol-artifact-1",
  "contractName": "Staking",
  "sourceName": "contracts/staking.sol",
  "abi": [
    {
      "inputs": [
        {
          "internalType": "uint256",
          "name": "_amount",
          "type": "uint256"
        }
      ],
      "name": "Stake",
      "outputs": [],
      "stateMutability": "payable",
      "type": "function"
    },
    {
      "inputs": [
        {
          "internalType": "uint256",
          "name": "_amount",
          "type": "uint256"
        }
      ],
      "name": "Unstake",
      "outputs": [],
      "stateMutability": "payable",
      "type": "function"
    }
  ],
  "bytecode": "0x608060405234801561001057600080fd5b50610496806100206000396000f3fe6080604052600436106100295760003560e01c8063227a473b1461002e578063f1f1db1e1461004a575b600080fd5b610048600480360381019061004391906102b3565b610066565b005b610064600480360381019061005f91906102b3565b610126565b005b3481146100a8576040517f08c379a000000000000000000000000000000000000000000000000000000000815260040161009f9061033d565b60405180910390fd5b600081116100b557600080fd5b346000803373ffffffffffffffffffffffffffffffffffffffff1673ffffffffffffffffffffffffffffffffffffffff1681526020019081526020016000206000828254610103919061038c565b92505081905550346001600082825461011c919061038c565b9250508190555050565b34811461013257600080fd5b6000811161013f57600080fd5b6000803373ffffffffffffffffffffffffffffffffffffffff1673ffffffffffffffffffffffffffffffffffffffff168152602001908152602001600020548110156101c0576040517f08c379a00000000000000000000000000000000000000000000000000000000081526004016101b79061040c565b60405180910390fd5b806000803373ffffffffffffffffffffffffffffffffffffffff1673ffffffffffffffffffffffffffffffffffffffff168152602001908152602001600020600082825461020e919061042c565b925050819055508060016000828254610227919061042c565b925050819055503373ffffffffffffffffffffffffffffffffffffffff166108fc829081150290604051600060405180830381858888f19350505050158015610274573d6000803e3d6000fd5b5050565b600080fd5b6000819050919050565b6102908161027d565b811461029b57600080fd5b50565b6000813590506102ad81610287565b92915050565b6000602082840312156102c9576102c8610278565b5b60006102d78482850161029e565b91505092915050565b600082825260208201905092915050565b7f616d6f756e74206d75737420626520657175616c20746f2076616c7565000000600082015250565b6000610327601d836102e0565b9150610332826102f1565b602082019050919050565b600060208201905081810360008301526103568161031a565b9050919050565b7f4e487b7100000000000000000000000000000000000000000000000000000000600052601160045260246000fd5b60006103978261027d565b91506103a28361027d565b92508282019050808211156103ba576103b961035d565b5b92915050565b7f496e73756666696369656e742062616c616e636520746f20756e7374616b6500600082015250565b60006103f6601f836102e0565b9150610401826103c0565b602082019050919050565b60006020820190508181036000830152610425816103e9565b9050919050565b60006104378261027d565b91506104428361027d565b925082820390508181111561045a5761045961035d565b5b9291505056fea26469706673582212203d890df331c2844650616e38414ec2b25d0423b6205fa207e1346eb4ce3699bf64736f6c63430008140033",
  "linkReferences": {},
  "deployedLinkReferences": {}
}